:020000040800F2
:100000008006002091010008E50C0008DD060008CC
:10001000D90C00085F040008410F00080000000030
:10002000000000000000000000000000290D000892
:100030006304000800000000E70C0008150E00082B
:10004000AB010008AB010008AB010008AB010008E0
:10005000AB010008AB010008AB010008AB010008D0
:10006000AB010008AB010008AB010008AB010008C0
:10007000AB010008AB010008AB010008AB010008B0
:10008000AB010008AB010008AB010008AB010008A0
:10009000AB010008AB010008AB01000895040008A3
:1000A000AB010008AB010008AB010008AB01000880
:1000B000AB010008AB010008AB010008AB01000870
:1000C000AB010008AB010008AB010008AB01000860
:1000D000AB010008AB010008AB010008AB01000850
:1000E000AB010008AB010008AB01000800F002F80A
:1000F00000F03FF80AA090E8000C82448344AAF183
:100100000107DA4501D100F034F8AFF2090EBAE880
:100110000F0013F0010F18BFFB1A43F0010318473B
:10012000B0140000D0140000103A24BF78C878C181
:10013000FAD8520724BF30C830C144BF04680C60ED
:10014000704700000023002400250026103A28BF35
:1001500078C1FBD8520728BF30C148BF0B60704739
:10016000642900F07D80002070471FB51FBD10B5C9
:1001700010BD00F03FF91146FFF7F7FF00F0DCFF7C
:1001800000F05DF903B4FFF7F2FF03BC00F060F983
:100190000948804709480047FEE7FEE7FEE7FEE71B
:1001A000FEE7FEE7FEE7FEE7FEE7FEE70448054957
:1001B000054A064B70470000190E0008ED000008C4
:1001C00080000020800600208002002080020020A5
:1001D0000FB41CB5074B06AA7B44694600900598EE
:1001E00000F0E7F80020694600F0F6F81CBC5DF866
:1001F00014FB0000FD0100002DE9F0410E4604460D
:10020000002020622046E168884730B3252805D0C9
:10021000D4E901219047206A401CF2E7E1682046BA
:1002200000278847050018D0A5F14100192802D8F9
:1002300020354FF400673246294620462760FFF7F5
:100240008FFF40B1012804D0F61D26F007060836BE
:10025000D8E7361DD6E72846DAE7206ABDE8F08100
:100260002DE9F0410646002410687529314616A58F
:1002700010D0AFF30080002802DA404213A507E057
:1002800031688A0701D512A502E0490704D511A5F6
:10029000012401E0AFF3008000210A2206F12407C7
:1002A00009E0B0FBF2FCB0FBF2F302FB1C003030C3
:1002B00078541846491C0028F3D123462A46304674
:1002C000BDE8F04100F016B8000000002D0000006D
:1002D0002B0000002000000070477047704710B5E9
:1002E00000F080F8006810BD10B5044600F07AF800
:1002F000046010BD2DE9F0470D469946924604462C
:1003000000F124080168880604D5E06921F0100195
:10031000216000E00120A84201DD471B00E000272A
:10032000A1697A1902EB0900081AA0612078C006B9
:1003300002D42046AFF30080002608E0D4E9012172
:100340001AF806009047206A401C761C20624E4531
:10035000F4DB2078C0060AD52046AFF3008006E023
:10036000D4E9012130209047206A401C2062381EC9
:10037000A7F10107F4DC07E0D4E9012118F8050032
:100380009047206A401C2062281EA5F10105F3DC7D
:100390002046AFF300802078000602D50220BDE899
:1003A000F0870120FBE7000001694A1C0261087820
:1003B000704700B58FB0CDE90131002105910549A5
:1003C0007944CDE9031011466846FFF715FF0FB0D9
:1003D00000BD0000E5FFFFFF0A6802F8010B0A609C
:1003E00070470000004870471C000020004870471C
:1003F0001C0000207546FFF7F9FFAE460500694670
:10040000534620F00700854618B020B5FFF7CEFE12
:10041000BDE820404FF000064FF000074FF0000805
:100420004FF0000B21F00701AC46ACE8C009ACE886
:10043000C009ACE8C009ACE8C0098D46704710B5EA
:100440000446AFF300802046BDE81040FFF79ABE97
:1004500001491820ABBEFEE726000200704700BF2E
:10046000FEE7704700B500214FF0804000F013FD1B
:1004700000BF4FF0804000F00BFDB0F57A7FF8DB55
:1004800000BD00B5024602E0FFF7ECFF521E002A55
:10049000FAD100BD00B51A48006800F04000C8B1AC
:1004A0001848006838B90120164908604103164809
:1004B00000F0C2F807E00020124908604FF4005134
:1004C000114800F0BBF80E48006840F040000C49AD
:1004D000086014E00A48006800F0800078B100204D
:1004E0000A4908600120074908604103064800F0F6
:1004F000A3F80348006840F080000149086000BD8F
:1005000014040140000000200010014008000020F9
:100510002DE9F0410246002500260020002300249A
:10052000002791F803C00CF00F0591F803C00CF000
:10053000100CBCF1000F03D091F802C04CEA050585
:1005400091F800C0BCF1000F31D0146800202BE0FE
:100550004FF0010C0CFA00F3B1F800C00CEA0306EE
:100560009E4220D183004FF00F0C0CFA03F7BC43DE
:1005700005FA03FC4CEA040491F803C0BCF1280F0F
:1005800006D14FF0010C0CFA00FCC2F814C00AE0CE
:1005900091F803C0BCF1480F05D14FF0010C0CFAE3
:1005A00000FCC2F810C0401C0828D1D31460B1F878
:1005B00000C0BCF1FF0F34DD546800202EE000F1D4
:1005C000080C4FF0010808FA0CF3B1F800C00CEA6F
:1005D00003069E4221D183004FF00F0C0CFA03F763
:1005E000BC4305FA03FC4CEA040491F803C0BCF1D7
:1005F000280F05D100F1080C08FA0CF8C2F8148095
:1006000091F803C0BCF1480F07D100F1080C4FF07E
:10061000010808FA0CF8C2F81080401C0828CED354
:100620005460BDE8F0810246002093680B400BB196
:10063000012000E000207047416170470161704770
:1006400010B52148806940F004001F4988611F48A7
:10065000006820F07F401D4908600846006840F0AF
:100660000840086019480C30006840F0C000174985
:100670000C3108601648006840F0C000144908605A
:1006800013480C30006840F0C00011490C3108607C
:1006900017200021002807DA0A07140E0D4A00F07F
:1006A0000F031B1FD45403E00A07130E0A4A135406
:1006B00000BF1720012181404209920002F1E0228F
:1006C000C2F8001100BF10BD001002400008014038
:1006D0000004014018ED00E000E400E000BFFEE788
:1006E000094A108000BF084A121D128802F0020257
:1006F000002AF8D0044A121D1288034B08331B88C5
:100700001A43D1B270470000105400400A490988CA
:1007100021F48061084A1180074914310988064A8A
:10072000183212881143C8B20349098841F4007194
:10073000014A1180704700000054004005480088BD
:1007400020F48060034908800846008840F4007067
:1007500008807047005400401D48C06940F40010F4
:100760001B49C8610846806940F008008861194843
:10077000006840F07060174908600846006840F063
:10078000704008601448008840F400401249088016
:100790000846008820F400400880081D008840F0CA
:1007A0000800091D08800C481C30008840F0280013
:1007B00009491C310880081D008840F00900091D06
:1007C00008800548008840F0010003490880704710
:1007D00000100240000C014000540040F0B50446F7
:1007E0000D4616461F4600F061F82046FFF778FFD9
:1007F000284600F07BF800F059F8611CC8B23A4670
:10080000314600F003F800F067F8F0BDF0B5074698
:100810000C4616463846FFF763FF0025012E0DD122
:10082000FFF774FF00BF2048008800F04000002858
:10083000F9D01D48001F0088207033E0002513E028
:1008400000BF1948008800F040000028F9D0164881
:10085000001F0088605514481438008840F48060F8
:100860001149143908806D1CB01EA842E8DC00BF95
:100870000D48008800F040000028F9D00A48001F09
:100880000088C2B228466D1C2254FFF757FF00BFF4
:100890000548008800F040000028F9D00248001FF9
:1008A00000886055F0BD00001454004009480088DD
:1008B00040F48060074908800846008840F4807052
:1008C000088000BF03481430008800F001000028B1
:1008D000F8D07047005400400348008840F400708E
:1008E00001490880704700000054004000BF0849DB
:1008F000098801F080010029F9D00549091F088005
:1009000000BF0349098801F004010029F9D07047AC
:100910001454004070B506460C461546FFF7C6FF56
:100920003046FFF7DDFE2046FFF7E0FF2846FFF7E1
:10093000DDFFFFF7D1FF70BD10B504461CB10120EB
:100940000449C87002E000200249C87000F00AF8AB
:1009500010BD00001000002010B5012000F070F85C
:1009600010BD000010B500240EE00B4800784010C8
:10097000094908700948005D20B10846007840F038
:1009800080000870601CC4B2082CEEDB0122024912
:100990004E2000F0C8F810BD180000201000002004
:1009A00010B53220FFF76DFD00F098F9002404E047
:1009B00000201B490855601CC4B2082CF8DBFFF767
:1009C000D1FF002016490870FFF7CCFF0020144922
:1009D0004870FFF7C7FF032000F04AF80520FFF733
:1009E00050FD032000F044F80120FFF74AFD0320EA
:1009F00000F03EF80120FFF744FD022000F038F837
:100A00000120FFF73EFD282000F01AF80C2000F02E
:100A100017F80E2000F014F8012000F011F810BDB6
:100A20001000002010B5044607E0207820B114F82B
:100A3000010B00F0D1F800E000E0F6E700BF10BDC8
:100A400010B5044600F092F8002008490870FFF73E
:100A500089FF002005494870FFF784FF201100F04E
:100A600007F8204600F004F810BD00001000002038
:100A700010B5044604F0080018B101201749C871E8
:100A800002E000201549C87104F0040018B10120EB
:100A90001249887102E000201049887104F00200B8
:100AA00018B101200D49487102E000200B4948713E
:100AB00004F0010018B101200849087102E000208B
:100AC00006490871012005498870FFF74BFF002097
:100AD00002498870FFF746FF10BD0000100000209B
:100AE0002DE9F04107460D46164600F09FFA3846BC
:100AF00000F0D6FA20B900F0B9FA0020BDE8F08184
:100B0000002405E0012000F049FA2855601CC4B219
:100B1000701EA042F6DC002000F040FA285500F0DC
:100B2000A5FA0120EAE72DE9F04107460D461646F1
:100B300000F07CFA384600F0B3FA20B900F096FADB
:100B40000020BDE8F081002409E0285D00F0A8FA4B
:100B500018B900F08BFA0020F3E7601CC4B2B4426D
:100B6000F3DB00F083FA0120EBE7000008B5012079
:100B70001849087148718871C871FFF7F3FE0020A9
:100B800014490870FFF7EEFE012012494870FFF784
:100B9000E9FE00BF01200F498870FFF7E3FE012244
:100BA00069464F20FFF79CFF00200A498870FFF735
:100BB000D9FE012007498870FFF7D4FE00200549BF
:100BC0008870FFF7CFFE9DF8000000F008000028B5
:100BD000E0D108BD1000002010B50446FFF7C6FFA5
:100BE000012008490870FFF7BDFE00200549487044
:100BF000FFF7B8FE2011FFF73BFF2046FFF738FF55
:100C000010BD00001000002038B501236A46752190
:100C1000D02000F049F89DF80000682816D1002483
:100C200022466B21D02000F04DF84F242246192196
:100C3000D02000F047F8002422461C21D02000F0EC
:100C400041F822461B21D02000F03CF838BD08B501
:100C500002236A463B21D020FFF7C0FD9DF801002A
:100C60009DF8001040EA012000B208BD08B502233B
:100C70006A463D21D020FFF7B1FD9DF801009DF8A7
:100C8000001040EA012000B208BD08B502236A4600
:100C90003F21D020FFF7A2FD9DF801009DF8001034
:100CA00040EA012000B208BD2DE9F04104460D469E
:100CB00016461F463B46324629462046FFF78EFD24
:100CC000BDE8F08170B504460D4616463246294609
:100CD0002046FFF71FFE70BD00BFFEE710B500F015
:100CE00041F910BD7047704729B1064AD2690243E5
:100CF000044BDA6104E0034AD2698243014BDA61B2
:100D0000704700000010024029B1064A9269024370
:100D1000044B9A6104E0034A92698243014B9A6151
:100D20007047000000100240704710B500F002F854
:100D300010BD00000CB50020019000903348006801
:100D400040F480303149086000BF3048006800F44A
:100D5000003000900198401C0190009818B901984B
:100D6000B0F5A06FF1D12948006800F4003010B14F
:100D70000120009001E0002000900098012843D15C
:100D80002348006840F010002149086008460068C8
:100D900020F0070008600846006840F00200086084
:100DA0001A48406819494860084640684860084643
:100DB000406840F4806048600846406820F47C1039
:100DC00048600846406840F4E810486008460068FB
:100DD00040F08070086000BF0C48006800F00070B0
:100DE0000028F9D00948406820F00300074948600E
:100DF0000846406840F00200486000BF0348406871
:100E000000F00C000828F9D10CBD000000100240D1
:100E1000002002407047000010B51348006840F001
:100E200001001149086008464068104908400E4911
:100E30004860084600680E4908400B4908600846AB
:100E4000006820F4802008600846406820F4FE0016
:100E500048604FF41F008860FFF767FF4FF00060A5
:100E60000449086010BD0000001002400000FFF8B7
:100E7000FFFFF6FE08ED00E021B1028842F001021A
:100E8000028004E002884FF6FE731A400280704729
:100E90000146888C704781847047000000220288D8
:100EA0001D4B98420ED01D4B98420BD0B0F1804F95
:100EB00008D01B4B984205D01A4B984202D01A4BCF
:100EC000984204D14FF68F731A404B881A43174B40
:100ED000984207D0164B984204D04FF6FF431A4071
:100EE000CB881A4302808B8883850B8803850A4B45
:100EF00098420BD0094B984208D00E4B984205D02F
:100F00000D4B984202D00D4B984201D10B7A0386CB
:100F10000123838270470000002C0140003401400F
:100F20000004004000080040000C00400010004099
:100F300000140040004001400044014000480140CE
:100F400000BFFEE700B5024600214FF08040FFF7EA
:100F5000A2FF00BF4FF08040FFF79AFF9042F9D305
:100F600000BD000008B501210420FFF7CDFE1420CC
:100F70008DF803000320ADF800008DF802006946EB
:100F80000548FFF7C5FA01210348FFF757FB022187
:100F90000148FFF753FB08BD0008014070B5054646
:100FA00001212148FFF74AFB0320FFF7CBFF002672
:100FB0001BE06006040E02211B48FFF73FFB0320E5
:100FC000FFF7C0FF01211848FFF72DFB08B144F0DF
:100FD00001040220FFF7B6FF02211348FFF72CFBA4
:100FE0000520FFF7AFFF701CC6B2082EE1DB25B16C
:100FF00001210D48FFF720FB03E001210A48FFF71C
:101000001DFB0320FFF79EFF02210748FFF716FB99
:101010000520FFF797FF02210348FFF70DFB05208E
:10102000FFF790FF204670BD0008014000B5022187
:101030000D48FFF703FB0320FFF784FF01210A4857
:10104000FFF7FCFA0320FFF77DFF01210648FFF7B9
:10105000F3FA0320FFF776FF02210348FFF7ECFACB
:101060000320FFF76FFF00BD0008014000B501211C
:101070000A48FFF7E1FA0320FFF764FF022107485F
:10108000FFF7DCFA0320FFF75DFF01210348FFF7BC
:10109000D5FA0320FFF756FF00BD0000000801400D
:1010A00070B50446002620E004F0800020B1012144
:1010B0002048FFF7C3FA03E001211E48FFF7BCFAFE
:1010C0000320FFF73FFF02211A48FFF7B7FA052078
:1010D000FFF738FF02211748FFF7AEFA0220FFF7AB
:1010E00031FF6006040E701CC6B2082EDCDB012145
:1010F0001048FFF7A3FA0320FFF724FF02210D4851
:10110000FFF79CFA0320FFF71DFF01210948FFF7B5
:101110008AFA08B1002500E001250220FFF712FF3E
:1011200002210448FFF788FA0520FFF70BFF284645
:1011300070BD00000008014086B001211020FFF7BB
:10114000E3FD01210420FFF7DFFD01210846FFF741
:10115000CBFD10208DF817004002ADF814000320DD
:101160008DF8160005A92348FFF7D2F90020ADF845
:101170000A004FF6FF70ADF80C004720ADF80800EC
:1011800002A94FF08040FFF789FE01218807FFF791
:1011900073FEFFF7E7FEFFF703FCFFF7DDFAFFF74B
:1011A00033FDFFF74DFA24E0FFF751FD0646FFF748
:1011B0005DFD0446FFF769FD0546FFF76BF90E4834
:1011C000006820B92A462146304600F01FF8FFF794
:1011D000C3FB0120FFF7B0FB084809A1026868467D
:1011E000FEF7F6FF6846FFF71DFC4FF49670FFF719
:1011F00048F9D9E700100140000000200800002055
:10120000537465703A202564200000002DE9F047F2
:1012100082460C4691460AFB0AF104FB041109FBC5
:10122000091000F08AF8074600F032F8054600F091
:1012300055F800B2134908800846B0F9000043F69B
:10124000E461884201DD012000E000200E490968C8
:1012500009B9012100E00021084038B10B480068BD
:10126000401C0A4908600120074908600548B0F998
:10127000000043F6E461884202DA00200249086077
:10128000BDE8F0870C0000200400002008000020CA
:101290002DE9F04106460F4600F0B4F8041E0D4655
:1012A00018BF0120284320F00040C0F17F6000F10A
:1012B000E040C00F0ED0301C18BF0120384320F092
:1012C0000040C0F17F6000F1E040C00F04BF01208A
:1012D000FFF70AF820462946BDE8F0814FEA4103AE
:1012E0004FEA5353A3F58063D3F11E03C8BFD3F174
:1012F000210C0CDD4FF0004242EAC12242EA50527A
:1013000032FA03FC8CEAE17CACEBE1707047102B05
:10131000C4BF0020704703F5787CBCF1FF3F04D0C8
:101320006FF0004282EA2100704770B500F01CF8AF
:101330004992248000207047F2E710F0004248BF35
:101340004042B0FA80F310FA03F10AD0C3F11D0352
:1013500003F580634FEA415002EB035202EBD121C7
:1013600070474FF0000070470EF1020E2EF0030E92
:101370005EF8046B364205D4012A43EB030515F5EC
:10138000001F12D8012841EB010C1CF5001F0CD8DE
:101390000ED14FEAD17C15F5001F0CEB4C0C0CF173
:1013A000020C08BF4CEBD37C04E04FF0080C01E0CA
:1013B0004FEAD37C0CEB4C0526FA05F606F007063F
:1013C000B6F1040C06D20EEB860CBDE870404CF072
:1013D000010C6047DFE80CF0090B02024FF00041FE
:1013E0004FF00000A1F5002170BD194610460128FC
:1013F00051EB010418BFD4F5001484BF002001F0A4
:10140000004170BD2DE9F04101F5801CBCF5001FC5
:10141000C0F2C3804FEA115C21EA0C510CF1FD0CC3
:1014200041F480115FEA5C0C0CF5C07C01D34000F4
:1014300049413DA4890241EA905187028E0E0A0C6F
:10144000A45D04FB04F602FB06F6C6F14046A4FBCD
:101450000662F60D46EA422606FB06F4A4FB0123CB
:101460005242C3F1404338BF5B1EA6FB0242002438
:10147000E6FB0324D20B42EA4446A6FB0623A1FB6B
:1014800002E2A3FB07E4A4184FF0000252F10002AD
:10149000E3FB01426442C2F1404E38BFAEF1010E9F
:1014A000A6FB04234FF00002E6FB0E32A2FB03462C
:1014B0004FF00004B61954F10004E2FB0264A1FBF2
:1014C00006E6A4FB07E816EB08064FF0000858F103
:1014D0000008E4FB01687642C8F1405838BFA8F123
:1014E0000108A2FB06E4A3FB08E52D194FF0000458
:1014F00054F10004E2FB0854A1FB05E6A7FB04E855
:1015000018EB06084FF0000656F10006E1FB0486D2
:1015100018F1200556F10006A809A8F11B08B10929
:1015200008F03F08B8F10A0F40EA86601CD901EBC9
:101530000C51BDE8F08100BFFCF5EEE8E2DDD8D348
:10154000CFCBC7C3C0BDB9B6B4B1AEACA9A7A5A334
:10155000A19F9D9B9A9896959392908F8D8C8B8945
:101560008887868584838281A0FB006800FB01F266
:1015700008EB4208B8EB872807D5341858EB01046C
:10158000D5D5401C51F10001D1E7341A78EB0104A4
:10159000CDD4401E71F10001C9E75FEA4C0C5FEA4F
:1015A0009C5C0DD105D34FF0000001F00041BDE877
:1015B000F081BDE8F04170B5FFF7D6FE6DDBFFBEF0
:1015C000BDE8F0414FF00000004970470000F87F8F
:1015D000F0150008000000201C0000002801000891
:1015E0000C1600081C0000206406000044010008DE
:1015F00001000000000000000000000000000000EA
:0C160000000000000000000000000000DE
:04000005080001915D
:00000001FF
